:100000000C945E000C9486000C9486000C94860080
:100010000C9486000C9486000C9486000C94860048
:100020000C9486000C9486000C9486000C94860038
:100030000C9486000C9486000C9486000C94860028
:100040000C9447030C9486000C94B7030C94910312
:100050000C9486000C9486000C9486000C94860008
:100060000C9486000C948600000000080002010039
:100070000003040700000000000000000000000072
:10008000250028002B0000000000240027002A0083
:10009000040404040404040402020202020203032E
:1000A0000303030301020408102040800102040836
:1000B0001020010204081020E903E50511241FBEE9
:1000C000CFEFD8E0DEBFCDBF11E0A0E0B1E0ECE5BE
:1000D000F1E102C005900D92AE31B107D9F721E0F0
:1000E000AEE1B1E001C01D92AA3DB207E1F710E018
:1000F000CDE5D0E004C02197FE010E940D06CC356D
:10010000D107C9F70E9424040C94A1080C940000A4
:1001100090E0FC01EC55FF4F2491FC01E057FF4FAC
:100120008491882399F090E0880F991FFC01EA5789
:10013000FF4FA591B491FC01E458FF4F8591949134
:100140008FB7F894EC91E22BEC938FBF089590E079
:10015000FC01E859FF4F3491FC01EC55FF4F24910D
:10016000FC01E057FF4FE491EE2309F43BC0332339
:1001700039F1333091F038F43130A9F0323001F5F3
:1001800084B58F7D12C0373091F03830A1F0343013
:10019000B9F4809180008F7D03C0809180008F77BB
:1001A000809380000DC084B58F7784BD09C0809195
:1001B000B0008F7703C08091B0008F7D8093B00036
:1001C000F0E0EE0FFF1FE458FF4FA591B4918FB7F9
:1001D000F894EC91611103C020952E2301C02E2BC1
:1001E0002C938FBF08958E3008F08E5087708064F6
:1001F00080937C0080917A00806480937A00809163
:100200007A0086FDFCCF809178002091790090E003
:10021000922B08953FB7F89480912F01909130016F
:10022000A0913101B091320126B5A89B05C02F3FA6
:1002300019F00196A11DB11D3FBFBA2FA92F982F0C
:100240008827820F911DA11DB11DBC01CD0142E087
:10025000660F771F881F991F4A95D1F70895CF928F
:10026000DF92EF92FF920E940A016B017C010E94D3
:100270000A01DC01CB018C199D09AE09BF09883E3A
:100280009340A105B10598F3FF90EF90DF90CF90D8
:100290000895CF92DF92EF92FF920F931F93CF9327
:1002A000DF936C017A018B01C0E0D0E0CE15DF0551
:1002B00089F0D8016D918D01D601ED91FC910190ED
:1002C000F081E02DC6010995892B11F47E0102C051
:1002D0002196ECCFC701DF91CF911F910F91FF9035
:1002E000EF90DF90CF900895FC01918D828D98174B
:1002F00061F0828DDF01A80FB11D5D968C91928D0A
:100300009F5F9F73928F90E008958FEF9FEF089506
:10031000FC01918D828D981731F0828DE80FF11DCF
:10032000858D90E008958FEF9FEF0895FC01918DEA
:10033000228D892F90E0805C9F4F821B91098F73E3
:100340009927089583E391E00E94960121E0892B8B
:1003500009F420E0822F0895FC01848DDF01A80FAD
:10036000B11DA35ABF4F2C91848D90E001968F73DD
:100370009927848FA689B7892C93A089B1898C91FC
:1003800080648C93938D848D981306C00288F389C2
:10039000E02D80818F7D80830895EF92FF920F93EF
:1003A0001F93CF93DF93EC0181E0888F9B8D8C8D21
:1003B000981305C0E889F989808185FD24C0F62E4F
:1003C0000B8D10E00F5F1F4F0F731127E02E8C8DE8
:1003D000E8120CC00FB607FCFACFE889F9898081D2
:1003E00085FFF5CFCE010E94AC01F1CF8B8DFE01D0
:1003F000E80FF11DE35AFF4FF0820B8FEA89FB896A
:100400008081806207C0EE89FF896083E889F9896D
:1004100080818064808381E090E0DF91CF911F91A3
:100420000F91FF90EF900895CF93DF93EC01888DAB
:100430008823C9F0EA89FB89808185FD05C0A889E8
:10044000B9898C9186FD0FC00FB607FCF5CF80816E
:1004500085FFF2CFA889B9898C9185FFEDCFCE01B8
:100460000E94AC01E7CFDF91CF91089580E090E04A
:10047000892B29F00E94A20181110C94000008959B
:10048000009769F0FC0101900020E9F73197AF0176
:10049000481B590BBC0183E391E00C94490180E0B7
:1004A00090E008958F929F92AF92BF920F931F9307
:1004B000CF93DF93CDB7DEB7A1970FB6F894DEBF29
:1004C0000FBECDBF19A2423008F44AE08E010F5D85
:1004D0001F4F842E912CA12CB12CA50194010E94B8
:1004E000EB05E62FB901CA0101501109EA3014F4F5
:1004F000E05D01C0E95CD801EC93232B242B252B74
:1005000061F7C8010E944002A1960FB6F894DEBFC1
:100510000FBECDBFDF91CF911F910F91BF90AF90D4
:100520009F908F900895CF92DF92EF92FF92CF939A
:10053000DF936B017C01E0913301F0913401019074
:10054000F081E02D6DE283E391E00995EC016627EF
:100550007727CB016C197D098E099F094AE00E941B
:1005600052028C0F9D1FDF91CF91FF90EF90DF9093
:10057000CF900895BC01990F880B990B97FD0C94AF
:1005800093024AE00C9452020E940A080F931F93B0
:10059000CF93DF93EC0188819981009729F02A811C
:1005A0003B812617370788F48B016F5F7F4F0E94CE
:1005B0004007009761F0998388831B830A832C810D
:1005C0003D81232B11F4FC01108281E001C080E009
:1005D000DF91CF911F910F910895CF93DF93C09139
:1005E000D401D091D5012196BE0180ED91E00E9409
:1005F000C602882399F02091D0013091D1018091D9
:10060000D4019091D50166E171E0820F931F0E94A1
:100610001808D093D501C093D40181E0DF91CF9128
:100620000895EF92FF920F931F93CF93DF93EC0106
:100630007B018A01BA010E94C60228813981811199
:100640000DC02115310519F0C9010E94A8061982B3
:1006500018821D821C821B821A8206C01D830C8395
:10066000B701C9010E941808CE01DF91CF911F91F7
:100670000F91FF90EF90089540E050E06CE171E041
:1006800080ED91E00E94110380ED91E008951F92AA
:100690000F920FB60F9211242F933F938F939F9336
:1006A000AF93BF9380912B0190912C01A0912D01CC
:1006B000B0912E0130912A0123E0230F2D3720F431
:1006C0000196A11DB11D05C026E8230F0296A11DAC
:1006D000B11D20932A0180932B0190932C01A093AC
:1006E0002D01B0932E0180912F0190913001A091A6
:1006F0003101B09132010196A11DB11D80932F01EE
:1007000090933001A0933101B0933201BF91AF912A
:100710009F918F913F912F910F900FBE0F901F903F
:1007200018951F920F920FB60F9211242F933F939B
:100730004F935F936F937F938F939F93AF93BF93E9
:10074000EF93FF9383E391E00E94AC01FF91EF915F
:10075000BF91AF919F918F917F916F915F914F91D9
:100760003F912F910F900FBE0F901F9018951F92E1
:100770000F920FB60F9211242F938F939F93EF93A5
:10078000FF93E0914301F09144018081E0914901A0
:10079000F0914A0182FD12C0908180914C018F5FDF
:1007A0008F7320914D01821751F0E0914C01F0E0E0
:1007B000ED5CFE4F958F80934C0101C08081FF91CD
:1007C000EF919F918F912F910F900FBE0F901F90DF
:1007D0001895E3E3F1E01382128288EE93E0A0E043
:1007E000B0E084839583A683B7838AE091E0918308
:1007F000808385EC90E09587848784EC90E09787F0
:10080000868780EC90E0918B808B81EC90E0938BDD
:10081000828B82EC90E0958B848B86EC90E0978BBA
:10082000868B118E128E138E148EE0EDF1E0118204
:100830001082138212821582148240E050E06CE133
:1008400071E0CF010C941103CF93DF93CDB7DEB7E6
:1008500064970FB6F894DEBF0FBECDBF789484B511
:10086000826084BD84B5816084BD85B5826085BDAC
:1008700085B5816085BD80916E00816080936E003A
:10088000109281008091810082608093810080912C
:1008900081008160809381008091800081608093DD
:1008A00080008091B10084608093B1008091B0009D
:1008B00081608093B00080917A00846080937A0098
:1008C00080917A00826080937A0080917A008160C2
:1008D00080937A0080917A00806880937A001092E9
:1008E000C10086E00E948800E0914301F09144013C
:1008F00082E08083E0913F01F09140011082E0911D
:100900004101F09142018FEC808310924B01E09104
:100910004701F091480186E08083E0914501F09124
:100920004601808180618083E0914501F09146011C
:10093000808188608083E0914501F091460180814B
:1009400080688083E0914501F091460180818F7D30
:1009500080830E942F0183E391E00E949601181684
:1009600019060CF02FC183E391E00E947401182F47
:1009700089831A82E090D401F090D5018FEFE81AB4
:10098000F80AB70180ED91E00E94C602882399F031
:100990002091D0013091D1018091D4019091D50165
:1009A000BE016F5F7F4F820F931F0E941808F09265
:1009B000D501E092D4010E942F011D3209F040C000
:1009C0001E861D86188A1F861A8A198A6091D00190
:1009D0007091D1016115710541F04091D4015091A0
:1009E000D501CE010D960E94110309891A890115BE
:1009F000110511F4198213C00B30110510F00BE032
:100A000010E06D857E85A801CE0101960E941F0829
:100A1000E1E0F0E0EC0FFD1FE00FF11F1082CE01CE
:100A200001960E942E0860932601709327018093FF
:100A30002801909329018D859E850E94A8066DC08E
:100A40001E3209F06DC08091D0019091D1010097C4
:100A500019F00E942E0802C060E070E07B01109146
:100A60002601812F6B8B7C8B0E9488006B897C898F
:100A7000E114F10409F44BC08FEFE816F10409F416
:100A800048C0E12FF0E0E859FF4FE491E33001F175
:100A900048F4E130C1F0E230B1F584B5806284BD44
:100AA00068BD3BC0E730F9F0E83029F1E43059F592
:100AB00080918000806280938000CB0190938B00B6
:100AC00080938A002AC084B5806884BD67BD25C034
:100AD00080918000806880938000CB019093890092
:100AE000809388001AC08091B00080688093B00025
:100AF0006093B30012C08091B00080628093B00018
:100B00006093B4000AC080E8E816F10414F460E0D1
:100B100001C061E0812F0E94A7000E94ED024FC03A
:100B2000103409F018CF80E00E94F3008C019093FC
:100B300025018093240181E00E94F300909323011A
:100B40008093220182E00E94F30090932101809320
:100B5000200183E00E94F30090931F0180931E0107
:100B6000C8010E94BA0288E191E00E94400280918F
:100B70002201909123010E94BA0288E191E00E9433
:100B8000400280912001909121010E94BA0288E1E7
:100B900091E00E94400260911E0170911F01072E9A
:100BA000000C880B990B97FF03C00E94930203C0AF
:100BB0004AE00E9452028AE191E00E9440020E94B3
:100BC0003C03C9CE0E943602C6CE8091D0019091DE
:100BD000D1010C94A806A1E21A2EAA1BBB1BFD0191
:100BE0000DC0AA1FBB1FEE1FFF1FA217B307E4070C
:100BF000F50720F0A21BB30BE40BF50B661F771F64
:100C0000881F991F1A9469F7609570958095909543
:100C10009B01AC01BD01CF010895EE0FFF1F0590B0
:100C2000F491E02D0994CF93DF938230910510F475
:100C300082E090E0E091D801F091D90120E030E02D
:100C4000C0E0D0E0309711F1408151814817590739
:100C5000C0F04817590761F482819381209719F0F9
:100C60009B838A832BC09093D9018093D80126C09F
:100C70002115310519F04217530718F49A01BE01E6
:100C8000DF01EF010280F381E02DDCCF211531057A
:100C900009F1281B390B2430310590F412968D91FF
:100CA0009C9113976115710521F0FB019383828359
:100CB00004C09093D9018093D801FD01329644C0BD
:100CC000FD01E20FF31F81939193225031092D937F
:100CD0003C933AC02091D6013091D701232B41F4A7
:100CE00020910201309103013093D7012093D60166
:100CF00020910001309101012115310541F42DB7FA
:100D00003EB74091040150910501241B350BE09141
:100D1000D601F091D701E217F307A0F42E1B3F0B89
:100D20002817390778F0AC014E5F5F4F241735075D
:100D300048F04E0F5F1F5093D7014093D601819327
:100D4000919302C0E0E0F0E0CF01DF91CF910895F0
:100D50000F931F93CF93DF93009709F48CC0FC018E
:100D60003297138212820091D8011091D901011596
:100D7000110581F420813181820F931F2091D601CA
:100D80003091D7012817390779F5F093D701E0930F
:100D9000D60171C0D80140E050E0AE17BF0750F453
:100DA00012962D913C911397AD012115310509F152
:100DB000D901F3CF9D01DA013383228360817181F0
:100DC000860F971F8217930769F4EC0128813981F8
:100DD000260F371F2E5F3F4F318320838A819B81EF
:100DE00093838283452B29F4F093D901E093D801B2
:100DF00042C01396FC93EE931297ED0149915991DD
:100E00009E01240F351FE217F30771F48081918151
:100E1000840F951F029611969C938E9382819381E5
:100E200013969C938E931297E0E0F0E0D80112960F
:100E30008D919C911397009719F0F8018C01F6CFD2
:100E40008D919C9198012E5F3F4F820F931F2091AF
:100E5000D6013091D7012817390769F4309729F462
:100E60001092D9011092D80102C0138212821093FD
:100E7000D7010093D601DF91CF911F910F91089573
:100E8000A0E0B0E0E6E4F7E00C946E08EC01009717
:100E900021F4CB010E941306B8C0FC01E60FF71F36
:100EA0009C0122503109E217F30708F4ACC0D901C4
:100EB0000D911C91119706171707B0F00530110519
:100EC00008F49FC0C80104978617970708F499C0D3
:100ED00002501109061B170B019311936D937C931C
:100EE000CF010E94A8068DC05B01A01AB10A4C0177
:100EF000800E911EA091D801B091D90140E050E040
:100F0000E12CF12C109709F44AC0A815B905D1F5C8
:100F10006D907C901197630182E0C80ED11CCA14B9
:100F2000DB0480F1A3014A195B096A0182E0C80E63
:100F3000D11C1296BC9012971396AC91B5E0CB16CB
:100F4000D10440F0B282A38351834083D9016D93D1
:100F50007C930AC00E5F1F4FC301800F911FF901E0
:100F600091838083EB2DFA2FE114F10431F0D70146
:100F70001396FC93EE93129744C0F093D901E0933B
:100F8000D8013FC08D919C9111974817590708F4DB
:100F9000AC017D0112960D90BC91A02DB3CF809134
:100FA000D6019091D70188159905E1F446175707A6
:100FB000C8F48091000190910101009741F48DB730
:100FC0009EB74091040150910501841B950BE817D1
:100FD000F907C8F4F093D701E093D601F9017183C2
:100FE00060830FC0CB010E9413067C01009759F06B
:100FF000A801BE010E940F08CE010E94A806C701E9
:1010000004C0CE0102C080E090E0CDB7DEB7EEE0D4
:101010000C948A0881E090E0F8940C94A108FB01FC
:10102000DC0102C001900D9241505040D8F7089564
:10103000FB01DC0101900D920020E1F70895FB0116
:10104000DC014150504048F001900D920020C9F75A
:1010500001C01D9241505040E0F708951F93FC01DC
:1010600099278827BC01E89411911032E9F31930CF
:1010700010F01E30C8F31B3251F01D3249F4689451
:1010800006C00E945508610F711D811D911D1191AF
:1010900010531A30B0F33EF4909580957095619599
:1010A0007F4F8F4F9F4F1F910895592F482F372FF4
:1010B000262F660F771F881F991F660F771F881FBF
:1010C000991F620F731F841F951F660F771F881F5C
:1010D000991F08952F923F924F925F926F927F9245
:1010E0008F929F92AF92BF92CF92DF92EF92FF9238
:1010F0000F931F93CF93DF93CDB7DEB7CA1BDB0BE4
:101100000FB6F894DEBF0FBECDBF09942A88398888
:1011100048885F846E847D848C849B84AA84B9848F
:10112000C884DF80EE80FD800C811B81AA81B9819B
:10113000CE0FD11D0FB6F894DEBF0FBECDBFED01AF
:10114000089510E0CDE5D0E004C0FE010E940D0638
:0C1150002196CE35D107C9F7F894FFCFE7
:10115C000000DA01800000000000CD014901960179
:0E116C0074018801140223003B000D0A0000EC
:00000001FF
